{
  "contractName": "medicalRecords",
  "abi": [
    {
      "constant": true,
      "inputs": [],
      "name": "name",
      "outputs": [
        {
          "name": "",
          "type": "string"
        }
      ],
      "payable": false,
      "stateMutability": "view",
      "type": "function",
      "signature": "0x06fdde03"
    },
    {
      "constant": true,
      "inputs": [],
      "name": "totalSupply",
      "outputs": [
        {
          "name": "",
          "type": "uint256"
        }
      ],
      "payable": false,
      "stateMutability": "view",
      "type": "function",
      "signature": "0x18160ddd"
    },
    {
      "constant": true,
      "inputs": [
        {
          "name": "",
          "type": "address"
        }
      ],
      "name": "balances",
      "outputs": [
        {
          "name": "",
          "type": "uint256"
        }
      ],
      "payable": false,
      "stateMutability": "view",
      "type": "function",
      "signature": "0x27e235e3"
    },
    {
      "constant": true,
      "inputs": [],
      "name": "decimals",
      "outputs": [
        {
          "name": "",
          "type": "uint8"
        }
      ],
      "payable": false,
      "stateMutability": "view",
      "type": "function",
      "signature": "0x313ce567"
    },
    {
      "constant": true,
      "inputs": [
        {
          "name": "",
          "type": "address"
        },
        {
          "name": "",
          "type": "address"
        }
      ],
      "name": "allowed",
      "outputs": [
        {
          "name": "",
          "type": "uint256"
        }
      ],
      "payable": false,
      "stateMutability": "view",
      "type": "function",
      "signature": "0x5c658165"
    },
    {
      "constant": true,
      "inputs": [],
      "name": "OwnerOfHospital",
      "outputs": [
        {
          "name": "",
          "type": "address"
        }
      ],
      "payable": false,
      "stateMutability": "view",
      "type": "function",
      "signature": "0x61fc7f6a"
    },
    {
      "constant": true,
      "inputs": [],
      "name": "symbol",
      "outputs": [
        {
          "name": "",
          "type": "string"
        }
      ],
      "payable": false,
      "stateMutability": "view",
      "type": "function",
      "signature": "0x95d89b41"
    },
    {
      "inputs": [],
      "payable": false,
      "stateMutability": "nonpayable",
      "type": "constructor",
      "signature": "constructor"
    },
    {
      "anonymous": false,
      "inputs": [
        {
          "indexed": true,
          "name": "_from",
          "type": "address"
        },
        {
          "indexed": true,
          "name": "_to",
          "type": "address"
        },
        {
          "indexed": false,
          "name": "_value",
          "type": "uint256"
        }
      ],
      "name": "Transfer",
      "type": "event",
      "signature": "0xddf252ad1be2c89b69c2b068fc378daa952ba7f163c4a11628f55a4df523b3ef"
    },
    {
      "anonymous": false,
      "inputs": [
        {
          "indexed": true,
          "name": "_owner",
          "type": "address"
        },
        {
          "indexed": true,
          "name": "_spender",
          "type": "address"
        },
        {
          "indexed": false,
          "name": "_value",
          "type": "uint256"
        }
      ],
      "name": "Approval",
      "type": "event",
      "signature": "0x8c5be1e5ebec7d5bd14f71427d1e84f3dd0314c0f7b2291e5b200ac8c7c3b925"
    },
    {
      "constant": false,
      "inputs": [
        {
          "name": "_dId",
          "type": "uint256"
        },
        {
          "name": "_dName",
          "type": "string"
        },
        {
          "name": "_dEmail",
          "type": "string"
        },
        {
          "name": "_dContNum",
          "type": "uint256"
        },
        {
          "name": "_dEducation",
          "type": "string"
        },
        {
          "name": "_dAdd",
          "type": "string"
        }
      ],
      "name": "setDoctorDetails",
      "outputs": [],
      "payable": false,
      "stateMutability": "nonpayable",
      "type": "function",
      "signature": "0x40d15113"
    },
    {
      "constant": false,
      "inputs": [
        {
          "name": "_pId",
          "type": "uint256"
        },
        {
          "name": "_pName",
          "type": "string"
        },
        {
          "name": "_pEmail",
          "type": "string"
        },
        {
          "name": "_pContNum",
          "type": "uint256"
        },
        {
          "name": "_padd",
          "type": "string"
        },
        {
          "name": "_consultedDoctor",
          "type": "uint256"
        }
      ],
      "name": "setPatientDetails",
      "outputs": [
        {
          "name": "",
          "type": "bool"
        }
      ],
      "payable": false,
      "stateMutability": "nonpayable",
      "type": "function",
      "signature": "0x187bbcc3"
    },
    {
      "constant": true,
      "inputs": [
        {
          "name": "_dId",
          "type": "uint256"
        }
      ],
      "name": "getDoctorDetails",
      "outputs": [
        {
          "name": "",
          "type": "string"
        },
        {
          "name": "",
          "type": "string"
        },
        {
          "name": "",
          "type": "uint256"
        },
        {
          "name": "",
          "type": "string"
        },
        {
          "name": "",
          "type": "string"
        }
      ],
      "payable": false,
      "stateMutability": "view",
      "type": "function",
      "signature": "0x3b6d5b8c"
    },
    {
      "constant": true,
      "inputs": [
        {
          "name": "_pId",
          "type": "uint256"
        }
      ],
      "name": "getPatientInfo",
      "outputs": [
        {
          "name": "",
          "type": "string"
        },
        {
          "name": "",
          "type": "string"
        },
        {
          "name": "",
          "type": "uint256"
        },
        {
          "name": "",
          "type": "string"
        },
        {
          "name": "",
          "type": "uint256"
        }
      ],
      "payable": false,
      "stateMutability": "view",
      "type": "function",
      "signature": "0x828927c4"
    },
    {
      "constant": false,
      "inputs": [
        {
          "name": "_to",
          "type": "address"
        },
        {
          "name": "_value",
          "type": "uint256"
        }
      ],
      "name": "transfer",
      "outputs": [
        {
          "name": "success",
          "type": "bool"
        }
      ],
      "payable": false,
      "stateMutability": "nonpayable",
      "type": "function",
      "signature": "0xa9059cbb"
    },
    {
      "constant": false,
      "inputs": [
        {
          "name": "_from",
          "type": "address"
        },
        {
          "name": "_to",
          "type": "address"
        },
        {
          "name": "_value",
          "type": "uint256"
        }
      ],
      "name": "transferFrom",
      "outputs": [
        {
          "name": "success",
          "type": "bool"
        }
      ],
      "payable": false,
      "stateMutability": "nonpayable",
      "type": "function",
      "signature": "0x23b872dd"
    },
    {
      "constant": true,
      "inputs": [
        {
          "name": "_owner",
          "type": "address"
        }
      ],
      "name": "balanceOf",
      "outputs": [
        {
          "name": "balance",
          "type": "uint256"
        }
      ],
      "payable": false,
      "stateMutability": "view",
      "type": "function",
      "signature": "0x70a08231"
    },
    {
      "constant": false,
      "inputs": [
        {
          "name": "_spender",
          "type": "address"
        },
        {
          "name": "_value",
          "type": "uint256"
        }
      ],
      "name": "approve",
      "outputs": [
        {
          "name": "success",
          "type": "bool"
        }
      ],
      "payable": false,
      "stateMutability": "nonpayable",
      "type": "function",
      "signature": "0x095ea7b3"
    },
    {
      "constant": true,
      "inputs": [
        {
          "name": "_owner",
          "type": "address"
        },
        {
          "name": "_spender",
          "type": "address"
        }
      ],
      "name": "allowance",
      "outputs": [
        {
          "name": "remaining",
          "type": "uint256"
        }
      ],
      "payable": false,
      "stateMutability": "view",
      "type": "function",
      "signature": "0xdd62ed3e"
    }
  ],
  "bytecode": "0x60806040523480156200001157600080fd5b5033600160006101000a81548173ffffffffffffffffffffffffffffffffffffffff021916908373ffffffffffffffffffffffffffffffffffffffff160217905550612710600760003373ffffffffffffffffffffffffffffffffffffffff1673ffffffffffffffffffffffffffffffffffffffff168152602001908152602001600020819055506127106000819055506040805190810160405280600d81526020017f4d65646963616c20546f6b656e0000000000000000000000000000000000000081525060099080519060200190620000ef92919062000160565b506000600a60006101000a81548160ff021916908360ff1602179055506040805190810160405280600881526020017f4d4544546f6b656e000000000000000000000000000000000000000000000000815250600b90805190602001906200015992919062000160565b506200020f565b828054600181600116156101000203166002900490600052602060002090601f016020900481019282601f10620001a357805160ff1916838001178555620001d4565b82800160010185558215620001d4579182015b82811115620001d3578251825591602001919060010190620001b6565b5b509050620001e39190620001e7565b5090565b6200020c91905b8082111562000208576000816000905550600101620001ee565b5090565b90565b612372806200021f6000396000f3fe6080604052600436106100e6576000357c0100000000000000000000000000000000000000000000000000000000900463ffffffff16806306fdde03146100eb578063095ea7b31461017b57806318160ddd146101ee578063187bbcc31461021957806323b872dd1461044557806327e235e3146104d8578063313ce5671461053d5780633b6d5b8c1461056e57806340d151131461076d5780635c65816514610a0e57806361fc7f6a14610a9357806370a0823114610aea578063828927c414610b4f57806395d89b4114610ce9578063a9059cbb14610d79578063dd62ed3e14610dec575b600080fd5b3480156100f757600080fd5b50610100610e71565b6040518080602001828103825283818151815260200191508051906020019080838360005b83811015610140578082015181840152602081019050610125565b50505050905090810190601f16801561016d5780820380516001836020036101000a031916815260200191505b509250505060405180910390f35b34801561018757600080fd5b506101d46004803603604081101561019e57600080fd5b81019080803573ffffffffffffffffffffffffffffffffffffffff16906020019092919080359060200190929190505050610f0f565b604051808215151515815260200191505060405180910390f35b3480156101fa57600080fd5b50610203611001565b6040518082815260200191505060405180910390f35b34801561022557600080fd5b5061042b600480360360c081101561023c57600080fd5b81019080803590602001909291908035906020019064010000000081111561026357600080fd5b82018360208201111561027557600080fd5b8035906020019184600183028401116401000000008311171561029757600080fd5b91908080601f016020809104026020016040519081016040528093929190818152602001838380828437600081840152601f19601f820116905080830192505050505050509192919290803590602001906401000000008111156102fa57600080fd5b82018360208201111561030c57600080fd5b8035906020019184600183028401116401000000008311171561032e57600080fd5b91908080601f016020809104026020016040519081016040528093929190818152602001838380828437600081840152601f19601f820116905080830192505050505050509192919290803590602001909291908035906020019064010000000081111561039b57600080fd5b8201836020820111156103ad57600080fd5b803590602001918460018302840111640100000000831117156103cf57600080fd5b91908080601f016020809104026020016040519081016040528093929190818152602001838380828437600081840152601f19601f82011690508083019250505050505050919291929080359060200190929190505050611007565b604051808215151515815260200191505060405180910390f35b34801561045157600080fd5b506104be6004803603606081101561046857600080fd5b81019080803573ffffffffffffffffffffffffffffffffffffffff169060200190929190803573ffffffffffffffffffffffffffffffffffffffff169060200190929190803590602001909291905050506111fb565b604051808215151515815260200191505060405180910390f35b3480156104e457600080fd5b50610527600480360360208110156104fb57600080fd5b81019080803573ffffffffffffffffffffffffffffffffffffffff169060200190929190505050611495565b6040518082815260200191505060405180910390f35b34801561054957600080fd5b506105526114ad565b604051808260ff1660ff16815260200191505060405180910390f35b34801561057a57600080fd5b506105a76004803603602081101561059157600080fd5b81019080803590602001909291905050506114c0565b604051808060200180602001868152602001806020018060200185810385528a818151815260200191508051906020019080838360005b838110156105f95780820151818401526020810190506105de565b50505050905090810190601f1680156106265780820380516001836020036101000a031916815260200191505b50858103845289818151815260200191508051906020019080838360005b8381101561065f578082015181840152602081019050610644565b50505050905090810190601f16801561068c5780820380516001836020036101000a031916815260200191505b50858103835287818151815260200191508051906020019080838360005b838110156106c55780820151818401526020810190506106aa565b50505050905090810190601f1680156106f25780820380516001836020036101000a031916815260200191505b50858103825286818151815260200191508051906020019080838360005b8381101561072b578082015181840152602081019050610710565b50505050905090810190601f1680156107585780820380516001836020036101000a031916815260200191505b50995050505050505050505060405180910390f35b34801561077957600080fd5b50610a0c600480360360c081101561079057600080fd5b8101908080359060200190929190803590602001906401000000008111156107b757600080fd5b8201836020820111156107c957600080fd5b803590602001918460018302840111640100000000831117156107eb57600080fd5b91908080601f016020809104026020016040519081016040528093929190818152602001838380828437600081840152601f19601f8201169050808301925050505050505091929192908035906020019064010000000081111561084e57600080fd5b82018360208201111561086057600080fd5b8035906020019184600183028401116401000000008311171561088257600080fd5b91908080601f016020809104026020016040519081016040528093929190818152602001838380828437600081840152601f19601f82011690508083019250505050505050919291929080359060200190929190803590602001906401000000008111156108ef57600080fd5b82018360208201111561090157600080fd5b8035906020019184600183028401116401000000008311171561092357600080fd5b91908080601f016020809104026020016040519081016040528093929190818152602001838380828437600081840152601f19601f8201169050808301925050505050505091929192908035906020019064010000000081111561098657600080fd5b82018360208201111561099857600080fd5b803590602001918460018302840111640100000000831117156109ba57600080fd5b91908080601f016020809104026020016040519081016040528093929190818152602001838380828437600081840152601f19601f820116905080830192505050505050509192919290505050611958565b005b348015610a1a57600080fd5b50610a7d60048036036040811015610a3157600080fd5b81019080803573ffffffffffffffffffffffffffffffffffffffff169060200190929190803573ffffffffffffffffffffffffffffffffffffffff169060200190929190505050611b54565b6040518082815260200191505060405180910390f35b348015610a9f57600080fd5b50610aa8611b79565b604051808273ffffffffffffffffffffffffffffffffffffffff1673ffffffffffffffffffffffffffffffffffffffff16815260200191505060405180910390f35b348015610af657600080fd5b50610b3960048036036020811015610b0d57600080fd5b81019080803573ffffffffffffffffffffffffffffffffffffffff169060200190929190505050611b9f565b6040518082815260200191505060405180910390f35b348015610b5b57600080fd5b50610b8860048036036020811015610b7257600080fd5b8101908080359060200190929190505050611be8565b60405180806020018060200186815260200180602001858152602001848103845289818151815260200191508051906020019080838360005b83811015610bdc578082015181840152602081019050610bc1565b50505050905090810190601f168015610c095780820380516001836020036101000a031916815260200191505b50848103835288818151815260200191508051906020019080838360005b83811015610c42578082015181840152602081019050610c27565b50505050905090810190601f168015610c6f5780820380516001836020036101000a031916815260200191505b50848103825286818151815260200191508051906020019080838360005b83811015610ca8578082015181840152602081019050610c8d565b50505050905090810190601f168015610cd55780820380516001836020036101000a031916815260200191505b509850505050505050505060405180910390f35b348015610cf557600080fd5b50610cfe611fc3565b6040518080602001828103825283818151815260200191508051906020019080838360005b83811015610d3e578082015181840152602081019050610d23565b50505050905090810190601f168015610d6b5780820380516001836020036101000a031916815260200191505b509250505060405180910390f35b348015610d8557600080fd5b50610dd260048036036040811015610d9c57600080fd5b81019080803573ffffffffffffffffffffffffffffffffffffffff16906020019092919080359060200190929190505050612061565b604051808215151515815260200191505060405180910390f35b348015610df857600080fd5b50610e5b60048036036040811015610e0f57600080fd5b81019080803573ffffffffffffffffffffffffffffffffffffffff169060200190929190803573ffffffffffffffffffffffffffffffffffffffff1690602001909291905050506121ba565b6040518082815260200191505060405180910390f35b60098054600181600116156101000203166002900480601f016020809104026020016040519081016040528092919081815260200182805460018160011615610100020316600290048015610f075780601f10610edc57610100808354040283529160200191610f07565b820191906000526020600020905b815481529060010190602001808311610eea57829003601f168201915b505050505081565b600081600860003373ffffffffffffffffffffffffffffffffffffffff1673ffffffffffffffffffffffffffffffffffffffff16815260200190815260200160002060008573ffffffffffffffffffffffffffffffffffffffff1673ffffffffffffffffffffffffffffffffffffffff168152602001908152602001600020819055508273ffffffffffffffffffffffffffffffffffffffff163373ffffffffffffffffffffffffffffffffffffffff167f8c5be1e5ebec7d5bd14f71427d1e84f3dd0314c0f7b2291e5b200ac8c7c3b925846040518082815260200191505060405180910390a36001905092915050565b60005481565b6000600160009054906101000a900473ffffffffffffffffffffffffffffffffffffffff1673ffffffffffffffffffffffffffffffffffffffff163373ffffffffffffffffffffffffffffffffffffffff161415156110f4576040517f08c379a000000000000000000000000000000000000000000000000000000000815260040180806020018281038252603f8152602001807f4f6e6c7920486f73706974616c206f776e65722063616e20616464207468652081526020017f446f63746f722064657461696c7320696e746f20746865207265636f7264210081525060400191505060405180910390fd5b600060036000898152602001908152602001600020905086816000019080519060200190611123929190612241565b508581600101908051906020019061113c929190612241565b508481600201819055508381600301908051906020019061115e929190612241565b508281600401819055506001600660003373ffffffffffffffffffffffffffffffffffffffff1673ffffffffffffffffffffffffffffffffffffffff16815260200190815260200160002060006101000a81548160ff0219169083151502179055506001600460008a815260200190815260200160002060006101000a81548160ff02191690831515021790555060019150509695505050505050565b600080600860008673ffffffffffffffffffffffffffffffffffffffff1673ffffffffffffffffffffffffffffffffffffffff16815260200190815260200160002060003373ffffffffffffffffffffffffffffffffffffffff1673ffffffffffffffffffffffffffffffffffffffff16815260200190815260200160002054905082600760008773ffffffffffffffffffffffffffffffffffffffff1673ffffffffffffffffffffffffffffffffffffffff16815260200190815260200160002054101580156112cc5750828110155b15156112d757600080fd5b82600760008673ffffffffffffffffffffffffffffffffffffffff1673ffffffffffffffffffffffffffffffffffffffff1681526020019081526020016000206000828254019250508190555082600760008773ffffffffffffffffffffffffffffffffffffffff1673ffffffffffffffffffffffffffffffffffffffff168152602001908152602001600020600082825403925050819055507fffffffffffffffffffffffffffffffffffffffffffffffffffffffffffffffff8110156114245782600860008773ffffffffffffffffffffffffffffffffffffffff1673ffffffffffffffffffffffffffffffffffffffff16815260200190815260200160002060003373ffffffffffffffffffffffffffffffffffffffff1673ffffffffffffffffffffffffffffffffffffffff168152602001908152602001600020600082825403925050819055505b8373ffffffffffffffffffffffffffffffffffffffff168573ffffffffffffffffffffffffffffffffffffffff167fddf252ad1be2c89b69c2b068fc378daa952ba7f163c4a11628f55a4df523b3ef856040518082815260200191505060405180910390a360019150509392505050565b60076020528060005260406000206000915090505481565b600a60009054906101000a900460ff1681565b60608060006060806114d06122c1565b6002600088815260200190815260200160002060a06040519081016040529081600082018054600181600116156101000203166002900480601f0160208091040260200160405190810160405280929190818152602001828054600181600116156101000203166002900480156115885780601f1061155d57610100808354040283529160200191611588565b820191906000526020600020905b81548152906001019060200180831161156b57829003601f168201915b50505050508152602001600182018054600181600116156101000203166002900480601f01602080910402602001604051908101604052809291908181526020018280546001816001161561010002031660029004801561162a5780601f106115ff5761010080835404028352916020019161162a565b820191906000526020600020905b81548152906001019060200180831161160d57829003601f168201915b5050505050815260200160028201548152602001600382018054600181600116156101000203166002900480601f0160208091040260200160405190810160405280929190818152602001828054600181600116156101000203166002900480156116d65780601f106116ab576101008083540402835291602001916116d6565b820191906000526020600020905b8154815290600101906020018083116116b957829003601f168201915b50505050508152602001600482018054600181600116156101000203166002900480601f0160208091040260200160405190810160405280929190818152602001828054600181600116156101000203166002900480156117785780601f1061174d57610100808354040283529160200191611778565b820191906000526020600020905b81548152906001019060200180831161175b57829003601f168201915b5050505050815250509050600115156004600089815260200190815260200160002060009054906101000a900460ff16151514801561185f5750600160009054906101000a900473ffffffffffffffffffffffffffffffffffffffff1673ffffffffffffffffffffffffffffffffffffffff163373ffffffffffffffffffffffffffffffffffffffff16148061185e575060011515600560003373ffffffffffffffffffffffffffffffffffffffff1673ffffffffffffffffffffffffffffffffffffffff16815260200190815260200160002060009054906101000a900460ff161515145b5b151561191f576040517f08c379a00000000000000000000000000000000000000000000000000000000081526004018080602001828103825260448152602001807f4f6e6c7920446f63746f722f4f776e65724f66486f73706974616c2f7265636581526020017f7074696f6e6973742063616e2073656520646f63746f727320696e666f726d6181526020017f74696f6e0000000000000000000000000000000000000000000000000000000081525060600191505060405180910390fd5b80600001518160200151826040015183606001518460800151849450839350819150809050955095509550955095505091939590929450565b600160009054906101000a900473ffffffffffffffffffffffffffffffffffffffff1673ffffffffffffffffffffffffffffffffffffffff163373ffffffffffffffffffffffffffffffffffffffff16141515611a43576040517f08c379a000000000000000000000000000000000000000000000000000000000815260040180806020018281038252603f8152602001807f4f6e6c7920486f73706974616c206f776e65722063616e20616464207468652081526020017f446f63746f722064657461696c7320696e746f20746865207265636f7264210081525060400191505060405180910390fd5b600060026000888152602001908152602001600020905085816000019080519060200190611a72929190612241565b5084816001019080519060200190611a8b929190612241565b5083816002018190555082816003019080519060200190611aad929190612241565b5081816004019080519060200190611ac6929190612241565b506001600560003373ffffffffffffffffffffffffffffffffffffffff1673ffffffffffffffffffffffffffffffffffffffff16815260200190815260200160002060006101000a81548160ff02191690831515021790555060016004600089815260200190815260200160002060006101000a81548160ff02191690831515021790555050505050505050565b6008602052816000526040600020602052806000526040600020600091509150505481565b600160009054906101000a900473ffffffffffffffffffffffffffffffffffffffff1681565b6000600760008373ffffffffffffffffffffffffffffffffffffffff1673ffffffffffffffffffffffffffffffffffffffff168152602001908152602001600020549050919050565b606080600060606000611bf96122f1565b6003600088815260200190815260200160002060a06040519081016040529081600082018054600181600116156101000203166002900480601f016020809104026020016040519081016040528092919081815260200182805460018160011615610100020316600290048015611cb15780601f10611c8657610100808354040283529160200191611cb1565b820191906000526020600020905b815481529060010190602001808311611c9457829003601f168201915b50505050508152602001600182018054600181600116156101000203166002900480601f016020809104026020016040519081016040528092919081815260200182805460018160011615610100020316600290048015611d535780601f10611d2857610100808354040283529160200191611d53565b820191906000526020600020905b815481529060010190602001808311611d3657829003601f168201915b5050505050815260200160028201548152602001600382018054600181600116156101000203166002900480601f016020809104026020016040519081016040528092919081815260200182805460018160011615610100020316600290048015611dff5780601f10611dd457610100808354040283529160200191611dff565b820191906000526020600020905b815481529060010190602001808311611de257829003601f168201915b505050505081526020016004820154815250509050600115156004600089815260200190815260200160002060009054906101000a900460ff161515148015611ef3575060011515600660003373ffffffffffffffffffffffffffffffffffffffff1673ffffffffffffffffffffffffffffffffffffffff16815260200190815260200160002060009054906101000a900460ff1615151480611ef2575060011515600560003373ffffffffffffffffffffffffffffffffffffffff1673ffffffffffffffffffffffffffffffffffffffff16815260200190815260200160002060009054906101000a900460ff161515145b5b1515611f8d576040517f08c379a00000000000000000000000000000000000000000000000000000000081526004018080602001828103825260308152602001807f4f6e6c792050617469656e742f446f63746f722f2063616e207365652068697381526020017f2f68657220696e666f726d6174696f6e0000000000000000000000000000000081525060400191505060405180910390fd5b80600001518160200151826040015183606001518460800151849450839350819150955095509550955095505091939590929450565b600b8054600181600116156101000203166002900480601f0160208091040260200160405190810160405280929190818152602001828054600181600116156101000203166002900480156120595780601f1061202e57610100808354040283529160200191612059565b820191906000526020600020905b81548152906001019060200180831161203c57829003601f168201915b505050505081565b600081600760003373ffffffffffffffffffffffffffffffffffffffff1673ffffffffffffffffffffffffffffffffffffffff16815260200190815260200160002054101515156120b157600080fd5b81600760003373ffffffffffffffffffffffffffffffffffffffff1673ffffffffffffffffffffffffffffffffffffffff1681526020019081526020016000206000828254039250508190555081600760008573ffffffffffffffffffffffffffffffffffffffff1673ffffffffffffffffffffffffffffffffffffffff168152602001908152602001600020600082825401925050819055508273ffffffffffffffffffffffffffffffffffffffff163373ffffffffffffffffffffffffffffffffffffffff167fddf252ad1be2c89b69c2b068fc378daa952ba7f163c4a11628f55a4df523b3ef846040518082815260200191505060405180910390a36001905092915050565b6000600860008473ffffffffffffffffffffffffffffffffffffffff1673ffffffffffffffffffffffffffffffffffffffff16815260200190815260200160002060008373ffffffffffffffffffffffffffffffffffffffff1673ffffffffffffffffffffffffffffffffffffffff16815260200190815260200160002054905092915050565b828054600181600116156101000203166002900490600052602060002090601f016020900481019282601f1061228257805160ff19168380011785556122b0565b828001600101855582156122b0579182015b828111156122af578251825591602001919060010190612294565b5b5090506122bd9190612321565b5090565b60a06040519081016040528060608152602001606081526020016000815260200160608152602001606081525090565b60a06040519081016040528060608152602001606081526020016000815260200160608152602001600081525090565b61234391905b8082111561233f576000816000905550600101612327565b5090565b9056fea165627a7a72305820bad07fc21153310d4021c03ce93d1602d7d291d4d9d2e06791320a8abec41a430029",
  "source": "pragma solidity ^0.5.0;\n\nimport \"./ERC20Interface.sol\";\n\ncontract medicalRecords is ERC20Interface {\n    \n    struct Doctor{\n        string doctorName;\n        string doctorEmail;\n        uint doctorContNum;\n        string doctorEducation;\n        string doctorLocalAddress;\n    }\n    \n    struct Patient{\n        string patientName;\n        string patientEmail;\n        uint patientContNum;\n        string patientLocalAddress;\n        uint consultedDoctor;\n    }\n    \n    address public OwnerOfHospital;\n    \n    mapping(uint => Doctor) doctorInfo;\n    mapping(uint => Patient) patientInfo;\n    mapping(uint => bool) isRecordExist;\n    mapping(address => bool) isDoctorValid;\n    mapping(address => bool) isPatientValid;\n    \n    uint256 constant private MAX_UINT256 = 2**256 - 1;\n    mapping (address => uint256) public balances;\n    mapping (address => mapping (address => uint256)) public allowed;\n    \n    string public name;                                  //Token name: Medical Token\n    uint8 public decimals;                               //How many decimals to show.\n    string public symbol;                                //An identifier: MEDToken\n    \n    constructor() public  {\n        OwnerOfHospital = msg.sender;\n        \n        balances[msg.sender] = 10000;                    // Give the creator all initial tokens\n        totalSupply = 10000;                             // Update total supply\n        name = \"Medical Token\";                          // Set the name for display purposes\n        decimals = 0;                                    // Amount of decimals for display purposes\n        symbol = \"MEDToken\";                             // Set the symbol for display purposes\n    }\n    \n    modifier onlyHospitalOwner {\n        require(msg.sender == OwnerOfHospital, \"Only Hospital owner can add the Doctor details into the record!\");\n        _;\n    }\n    \n    function setDoctorDetails(uint _dId, string memory _dName, string memory _dEmail, uint _dContNum, string memory _dEducation, string memory _dAdd) onlyHospitalOwner public {   //Set the details of doctors\n        Doctor storage d = doctorInfo[_dId];\n        \n        d.doctorName = _dName;\n        d.doctorEmail = _dEmail;\n        d.doctorContNum = _dContNum;\n        d.doctorEducation = _dEducation;\n        d.doctorLocalAddress = _dAdd;\n        \n        isDoctorValid[msg.sender] = true;\n        isRecordExist[_dId] = true;\n    }\n    \n    function setPatientDetails(uint _pId, string memory _pName, string memory _pEmail, uint _pContNum, string memory _padd, uint _consultedDoctor)  onlyHospitalOwner public returns(bool) {   //This function is used to set the patient details.\n        Patient storage p = patientInfo[_pId];\n              \n        p.patientName = _pName;\n        p.patientEmail = _pEmail;\n        p.patientContNum = _pContNum;\n        p.patientLocalAddress = _padd;\n        p.consultedDoctor = _consultedDoctor;\n    \n        isPatientValid[msg.sender] = true;\n        isRecordExist[_pId] = true;\n              \n        return true;\n    }\n    \n    function getDoctorDetails(uint _dId) public view returns(string memory, string memory, uint, string memory, string memory) {    //Get doctor details\n        Doctor memory s = doctorInfo[_dId];\n        require(isRecordExist[_dId] == true && (msg.sender == OwnerOfHospital || isDoctorValid[msg.sender] ==  true), \"Only Doctor/OwnerOfHospital/receptionist can see doctors information\");\n        return (s.doctorName,\n                s.doctorEmail,\n                s.doctorContNum,\n                s.doctorEducation,\n                s.doctorLocalAddress\n            );\n    }\n    \n    function getPatientInfo(uint _pId) public view returns(string memory, string memory, uint, string memory, uint) {    //Get Patient details.\n        Patient memory a = patientInfo[_pId];\n        require(isRecordExist[_pId] == true &&(isPatientValid[msg.sender] == true || isDoctorValid[msg.sender] == true), \"Only Patient/Doctor/ can see his/her information\");\n        return (a.patientName,\n                a.patientEmail,\n                a.patientContNum,\n                a.patientLocalAddress,\n                a.consultedDoctor\n        );\n    }\n    \n    function transfer(address _to, uint256 _value) public returns (bool success) {  \n        require(balances[msg.sender] >= _value);\n        balances[msg.sender] -= _value;\n        balances[_to] += _value;\n        emit Transfer(msg.sender, _to, _value); \n        return true;\n    }\n\n    function transferFrom(address _from, address _to, uint256 _value) public returns (bool success) {\n        uint256 allowance = allowed[_from][msg.sender];\n        require(balances[_from] >= _value && allowance >= _value);\n        balances[_to] += _value;\n        balances[_from] -= _value;\n        if (allowance < MAX_UINT256) {\n            allowed[_from][msg.sender] -= _value;\n        }\n        emit Transfer(_from, _to, _value); \n        return true;\n    }\n\n    function balanceOf(address _owner) public view returns (uint256 balance) {\n        return balances[_owner];\n    }\n\n    function approve(address _spender, uint256 _value) public returns (bool success) {\n        allowed[msg.sender][_spender] = _value;\n        emit Approval(msg.sender, _spender, _value); \n        return true;\n    }\n\n    function allowance(address _owner, address _spender) public view returns (uint256 remaining) {\n        return allowed[_owner][_spender];\n    }\n    \n}\n",
  "sourcePath": "D:/assignments/blockchain/assign/assignments/blockchain/src/Hospital-Record/contract/contracts/medicalRecord.sol",
  "compiler": {
    "name": "solc",
    "version": "0.5.0+commit.1d4f565a.Emscripten.clang"
  },
  "schemaVersion": "3.0.1",
  "updatedAt": "2019-02-21T06:12:15.488Z",
  "devdoc": {
    "methods": {}
  },
  "userdoc": {
    "methods": {}
  }
}